:100000000C942B000C9457000C9448000C9448005E
:100010000C9448000C9448000C9448000C94480040
:100020000C9448000C9448000C9448000C94480030
:100030000C9448000C9448000C9448000C94480020
:100040000C9448000C9448000C9448000C94480010
:100050000C944800680011241FBECFE5D8E0DEBF35
:10006000CDBF20E0A0E6B0E001C01D92A136B207EE
:10007000E1F710E0C6E5D0E004C02297FE010E943F
:100080007000C435D107C9F70E946D000C9474004C
:100090000C940000FC01108211BA8FEF84BB8BB767
:1000A000806C8BBF85B78E6085BF789408951F9252
:1000B0000F920FB60F9211248F93809160008F5F83
:1000C000809360008F910F900FBE0F901F90189536
:1000D00080E690E00E944A000895FFCFEE0FFF1FD8
:0C00E0000590F491E02D0994F894FFCFF6
:00000001FF
